:100000000C943A000C9457000C9457000C94570031
:100010000C9457000C9457000C9457000C94570004
:100020000C9457000C9457000C9457000C945B00F0
:100030000C9408010C9457000C9457000C94FB048A
:100040000C9457000C9457000C9457000C94940592
:100050000C9457000C9457000C9457000C945700C4
:100060000C9457000C9457000C9457000C945700B4
:100070000C94570011241FBECFEFD2E0DEBFCDBFDE
:1000800012E0A0E0B1E0E6EAFEE002C005900D92C9
:10009000AE32B107D9F722E0AEE2B2E001C01D9264
:1000A000A134B207E1F70E9452040C9451070C945A
:1000B0000000089508950F921F920FB60F9200242A
:1000C0002F933F934F935F936F937F938F939F9360
:1000D000CF93DF93EF93FF93CDB7DEB721970FB6A2
:1000E000F894DEBF0FBECDBF8FB7F894E091310218
:1000F000F0913202319620E030E02E173F070CF0ED
:1001000070C0F0933202E09331029091330291304B
:1001100009F063C09091E10040E04093E1009870E5
:10012000903009F437C090913302913009F055C0F6
:1001300090E09093E90090913302913009F04DC026
:1001400091E09093EB0090913302913009F045C01B
:1001500090E09093EC0090913302913009F03DC013
:1001600092E39093ED0090913302913009F035C005
:1001700098E09093F000409134025091350242177C
:10018000530709F038C0309335022093340290E0D1
:1001900090933602E0913102F09132023197F09360
:1001A0003202E093310288230AF4789421960FB644
:1001B000F894DEBF0FBECDBFFF91EF91DF91CF91DD
:1001C0009F918F917F916F915F914F913F912F916F
:1001D0000F900FBE1F900F9018950E94A2060E94CC
:1001E0004C0783E591E068E170E0AE014F5F5F4F3F
:1001F00020E031E009C083E491E060E170E0AE010D
:100200004F5F5F4F28E031E00E9447070E944C0794
:100210000F921F920FB60F9200246F927F928F92CF
:100220009F92AF92BF92CF92DF92FF920F931F9354
:100230002F933F934F935F936F937F938F939F93EE
:10024000AF93BF93CF93DF93EF93FF93CDB7DEB719
:1002500021970FB6F894DEBF0FBECDBFFFB6F8945E
:100260008091310290913202019620E030E028170F
:1002700039070CF0F5C290933202809331028091DD
:100280003302813009F0E8C280E08093E900809178
:100290003302813009F0E0C28091E800887080303C
:1002A00009F49BC29091F1001091F1004091F1008E
:1002B000C090F1008091F1006091F1005091F10047
:1002C000A091F100E2EFE093E800E0912E02F091BE
:1002D0002F0231962E173F070CF0C2C2F0932F0267
:1002E000E0932E02E0913002E13009F0B5C2E0E186
:1002F000FBB1FE27FBB9E0912E02F0912F0231975E
:10030000F0932F02E0932E02E92FEE230AF02DC086
:10031000903809F436C0913A09F02FC013300CF030
:1003200090C0103009F46EC0113009F408C21230C8
:1003300009F04BC2803009F048C280913702909199
:1003400038020196281739070CF08AC290933802B8
:100350008093370280913302803009F47DC29091FE
:10036000E80091709030C1F304C2903009F441C0AC
:10037000913219F419300CF085C0103009F064C0C6
:1003800041C016300CF438C0163009F424C11830BE
:1003900009F01BC280913302803009F45DC2909154
:1003A000E80091709030C1F3809134029091350251
:1003B0000196281739070CF053C2909335028093A9
:1003C0003402809136028093F100809133028130B3
:1003D00009F042C28091E8008E7F8093E80080910E
:1003E0003402909135020197909335028093340244
:1003F000F4C116300CF060C0103021F0153009F453
:1004000029C0E3C180913302803009F425C2909164
:10041000E80091709030C1F380E08093F1009091FA
:100420003302913009F018C28093F10080913302B9
:10043000813009F011C28091E8008E7F8093E8003E
:10044000CCC1133009F47BC1153021F0163009F40A
:10045000C2C0BBC180913302813009F0FDC18091DF
:10046000E8008E7F8093E80080913302803009F4A9
:10047000F3C19091E80091709030C1F340684093CF
:10048000E300ABC11B3009F48CC11A3009F49AC1E6
:10049000193009F09AC1803009F097C18091330278
:1004A000803009F4D9C19091E80094709030C1F780
:1004B0008BEF8093E800BACF163009F48CC0193066
:1004C00009F083C18091340290913502821793071D
:1004D00009F0DEC130933502209334024093360296
:1004E00080913302813009F0B7C18091E8008E7F9E
:1004F0008093E80041E050E086E090E05C0184E019
:1005000090E04C0185E090E03C016901C901DA010D
:100510008601AF5FBF4F0F4F1F4FB501861797077B
:1005200008F0AFC1E0913302E13009F095C140938A
:10053000E900E0913302E13009F08EC1FC01E55998
:10054000FE4F60816093EB00FC013196603009F44E
:1005500022C060913302613009F07EC1B301861779
:10056000970708F08AC1E559FE4F60816093EC005F
:1005700060913302613009F06FC1FC013296B40121
:100580008617970708F079C1E559FE4F608160939F
:10059000ED00039601C0CF01E1E0B4014617570713
:1005A000C206D30608F0E0E0E170E030AD0168017A
:1005B00009F0AFCF80913302813009F04DC18EE157
:1005C0008093EA0080913302813009F045C180E0D8
:1005D0008093EA0002C1CC0CDD1CCC0CDD1CCC0CE1
:1005E000DD1CCC0CDD1CCC0CDD1CCC0CDD1CCC0CC7
:1005F000DD1CCC0CDD1C242F33272C293D29AA0F10
:10060000BB1FAA0FBB1FAA0FBB1FAA0FBB1FAA0F9E
:10061000BB1FAA0FBB1FAA0FBB1FAA0FBB1F452FD3
:1006200055274A2B5B2B660F771F660F771F660FC8
:10063000771F660F771F660F771F660F771F660F8E
:10064000771F660F771F9927862B972BA3E1B1E0C1
:1006500063E471E0FD01008111810217130731F499
:10066000FD01028113810817190729F01896A617B2
:10067000B70781F7AAC08FEF90E04817590708F035
:10068000AC01FD013681341708F0342FCD010696F8
:100690005C01149640E080913302803009F4DCC0A4
:1006A0002091E8009091E8002170203019F09470BA
:1006B000903099F78091E8008470803009F08DC007
:1006C0003034232F08F020E4203009F428C06D01D5
:1006D000522F540F122FF50160817181842F9927B9
:1006E0008617970708F0D0C0609133026130F60199
:1006F00009F0B2C0A081B181A80FB91F8C9180937D
:10070000F1001A954395103031F780913302813012
:1007100009F0A2C0832F821B452FD60102C0832F70
:10072000821B9091E8009E7F9093E8003034382F30
:1007300008F0B1CF8030382F09F0ADCF4EC08030F7
:1007400009F043C080913702909138020196281732
:1007500039070CF085C0909338028093370280915E
:100760003302803009F478C09091E80091709030A5
:10077000C1F3809139028093F1008091330281307E
:1007800009F06AC08091E8008E7F8093E800809134
:100790003702909138020197909338028093370284
:1007A0001CC0803091F4809110019091110182174A
:1007B000930709F06DC0309311012093100140930D
:1007C000120134CE803009F438C080913302813078
:1007D00009F042C081E28093EB0080913102909158
:1007E000320201979093320280933102FF200AF483
:1007F000789421960FB6F894DEBF0FBECDBFFF915F
:10080000EF91DF91CF91BF91AF919F918F917F91A8
:100810006F915F914F913F912F911F910F91FF9099
:10082000DF90CF90BF90AF909F908F907F906F9010
:100830000F900FBE1F900F901895809137029091E6
:1008400038028217930709F023C0309338022093AF
:100850003702C0923902EACD0E94A2060E944C07DC
:1008600083E591E068E170E0AE014F5F5F4F20E00B
:1008700031E00E9447070E944C0766E070E0CF011C
:1008800003C066E070E0CB010E94A6060E944C0700
:1008900083E491E060E170E0AE014F5F5F4F28E0DC
:1008A00031E0E7CF0E9456040E944C07CF93DF93BC
:1008B000CDB7DEB721970FB6F894DEBF0FBECDBF20
:1008C0008FB7F89490914002903011F090E003C0FF
:1008D00091E09093400288230AF47894903009F4D0
:1008E00086C08FB7F89429E130E03093CD00209393
:1008F000CC0098E19093C90096E09093CA0020E064
:1009000024BFA89530E8309361002093610020EA6D
:100910002093D80099BD99B591709030E1F390E89B
:100920009093D80090E09093E0009CE09093E200D8
:1009300090E39AB99BB920E030E0409131025091A8
:1009400032024217530709F045C030933202209318
:10095000310291E09093330240912E0250912F0288
:100960004217530709F036C030932F0220932E020E
:100970009093300240E157E2509389004093880001
:10098000309385002093840092E090936F0095E06F
:100990009093810040913A0250913B0242175307D5
:1009A000C9F430933B0220933A0291E090933C02C9
:1009B00040913D0250913E024217530759F4309343
:1009C0003E0220933D0290933F0288230AF47894DC
:1009D0007894FFCF83E491E060E170E0AE014F5F77
:1009E0005F4F28E031E00E9447070E944C070E94B9
:1009F000A2060E944C070F921F920FB60F9200247E
:100A00002F933F934F935F936F937F938F939F9316
:100A1000CF93DF93EF93FF93CDB7DEB721970FB658
:100A2000F894DEBF0FBECDBF8FB7F894E0913A02C5
:100A3000F0913B02319620E030E02E173F070CF09A
:100A400066C0F0933B02E0933A0290913C029130F1
:100A500009F059C09FEF97BD90913C02913009F089
:100A600052C090E096BD90913C02913009F04BC08D
:100A700092E090936E0090913C02913009F043C057
:100A800095E095BDE0913A02F0913B023197F093E9
:100A90003B02E0933A02E0913D02F0913E02319632
:100AA0002E173F070CF033C0F0933E02E0933D0257
:100AB00090913F02913009F026C090E09093810020
:100AC000E0913D02F0913E023197F0933E02E093B7
:100AD0003D0288230AF4789421960FB6F894DEBF7D
:100AE0000FBECDBFFF91EF91DF91CF919F918F917D
:100AF0007F916F915F914F913F912F910F900FBE1A
:100B00001F900F9018950E94A2060E944C0783E543
:100B100091E068E170E0AE014F5F5F4F20E031E0AF
:100B20000E9447070E944C070F921F920FB60F9228
:100B300000242F933F934F935F936F937F938F93F3
:100B40009F93CF93DF93EF93FF93CDB7DEB72197BA
:100B50000FB6F894DEBF0FBECDBF8FB7F894E0910B
:100B60003A02F0913B02319620E030E02E173F0729
:100B70000CF0DBC0F0933B02E0933A0290913C0210
:100B8000913009F0CEC090E095BDE0913102F09136
:100B9000320231962E173F070CF0C7C0F093320295
:100BA000E0933102E0913402F091350231962E1734
:100BB0003F070CF0BAC0F0933502E0933402E091A5
:100BC0002E02F0912F0231962E173F070CF0ADC088
:100BD000F0932F02E0932E0290913002913009F0B1
:100BE000A0C090E22BB129272BB9E0912E02F09101
:100BF0002F023197F0932F02E0932E02909136024C
:100C0000903009F44BC090913302913009F089C0C3
:100C100091E09093E90090913302913009F081C006
:100C2000E091E400F091E500F29690913602209177
:100C3000E8002072203059F4903009F42FC0209140
:100C4000E4003091E5002E173F0788F327C090E0BD
:100C500021E0213009F065C0923024F4903031F465
:100C60002BE108C0923061F427EE04C0913009F006
:100C700058C02FE793952093F10020913302E9CFDC
:100C8000933009F04EC095E09093F10090913302BB
:100C9000913009F046C09AE39093E800E091340265
:100CA000F09135023197F0933502E0933402E091F0
:100CB0003102F09132023197F0933202E093310227
:100CC00090913C02913009F02CC090E096BD90913B
:100CD0003C02913009F025C095E095BDE0913A02C3
:100CE000F0913B023197F0933B02E0933A02882364
:100CF0000AF4789421960FB6F894DEBF0FBECDBFEC
:100D0000FF91EF91DF91CF919F918F917F916F91A3
:100D10005F914F913F912F910F900FBE1F900F90B9
:100D200018950E94A2060E944C0783E591E068E1B5
:100D300070E0AE014F5F5F4F20E031E00E94470757
:100D40000E944C070E94AA060E944C070E94AA0615
:100D50000E944C070E944B070E944C070F931F9361
:100D6000CF93DF93CDB7DEB724970FB6F894DEBFED
:100D70000FBECDBF8B01F80187859089218932890B
:100D8000F9012681378162E172E04BE050E0F90120
:100D9000099509831A83803011F480E001C081E055
:100DA00090E08B839C83CE0101960E94E3069927F5
:100DB00024960FB6F894DEBF0FBECDBFDF91CF9162
:100DC0001F910F9108950F931F93DC01FD01828104
:100DD0009381903009F422C0FD013296803011F0E9
:100DE00081E01BC08F01FD01A081B181FD018785DC
:100DF000908921893289F901268137814C9144708B
:100E0000403021F46DE172E042E003C06FE172E036
:100E100041E050E0F9010995F801808399271F917D
:100E20000F9108950F931F93CF93DF93CDB7DEB744
:100E300024970FB6F894DEBF0FBECDBF8B01F8012B
:100E40008785908921893289F9012681378160E27D
:100E500072E04EE050E0F901099509831A83803071
:100E600011F480E001C081E090E08B839C83CE018F
:100E700001960E94E306992724960FB6F894DEBFE8
:100E80000FBECDBFDF91CF911F910F9108950E94AA
:100E9000AA060E944C07FFCF81E090E0F8940C94E2
:060EA0005107F894FFCF9A
:100EA600B400000001005C0DB20000000100240E39
:100EB6000000010001000071011200000200008321
:100EC60001220000220000A501370000030000DC1B
:100ED60001040001030904E001080002030904E813
:100EE600012A00616C726561647920626F72726FAB
:100EF600776564616C7265616479206D7574616291
:100F06006C7920626F72726F77656401C13200007E
:100F1600001201100100000040C410C0820001014F
:100F260002000109022200010100803209040000CA
:100F36000103000000092111010001223700070505
:100F4600810340000A05010904A101A1021500263A
:100F5600FF00350046FF00050175089502093009B6
:100F6600318102C0A1020509250115001901290BCD
:100F7600950B7501810295058101C0C00403090422
:100F860008034F00460053002A034F007000650017
:100F96006E002000460069006700680074002000AB
:100FA60053007400690063006B0020007600320075
:100FB6006100426F72726F774572726F72207D7D2B
:0E0FC600426F72726F774D75744572726F7262
:00000001FF
