:100000000C943A000C9457000C9457000C94570031
:100010000C9457000C9457000C9457000C94570004
:100020000C9457000C9457000C9457000C945B00F0
:100030000C9408010C9457000C9457000C9439064A
:100040000C9457000C9457000C9457000C940A071A
:100050000C9457000C9457000C9457000C945204C5
:100060000C9457000C9457000C9457000C945700B4
:100070000C94570011241FBECFEFD2E0DEBFCDBFDE
:1000800012E0A0E0B1E0E6E3F2E102C005900D92DB
:10009000A433B107D9F722E0A4E3B2E001C01D9276
:1000A000AC35B207E1F70E947F050C9419090C9456
:1000B0000000089508950F921F920FB60F9200242A
:1000C0002F933F934F935F936F937F938F939F9360
:1000D000CF93DF93EF93FF93CDB7DEB721970FB6A2
:1000E000F894DEBF0FBECDBF8FB7F894E091370212
:1000F000F0913802319620E030E02E173F070CF0E7
:1001000070C0F0933802E093370290913902913039
:1001100009F063C09091E10040E04093E1009870E5
:10012000903009F437C090913902913009F055C0F0
:1001300090E09093E90090913902913009F04DC020
:1001400091E09093EB0090913902913009F045C015
:1001500090E09093EC0090913902913009F03DC00D
:1001600092E39093ED0090913902913009F035C0FF
:1001700098E09093F00040913A0250913B02421770
:10018000530709F038C030933B0220933A0290E0C5
:1001900090933C02E0913702F09138023197F0934E
:1001A0003802E093370288230AF4789421960FB638
:1001B000F894DEBF0FBECDBFFF91EF91DF91CF91DD
:1001C0009F918F917F916F915F914F913F912F916F
:1001D0000F900FBE1F900F9018950E946A080E9402
:1001E000140989E591E068E170E0AE014F5F5F4F6F
:1001F00020E031E009C089E491E060E170E0AE0107
:100200004F5F5F4F28E031E00E940F090E94140900
:100210000F921F920FB60F9200246F927F928F92CF
:100220009F92AF92BF92CF92DF92FF920F931F9354
:100230002F933F934F935F936F937F938F939F93EE
:10024000AF93BF93CF93DF93EF93FF93CDB7DEB719
:1002500021970FB6F894DEBF0FBECDBFFFB6F8945E
:100260008091370290913802019620E030E0281703
:1002700039070CF0F5C290933802809337028091D1
:100280003902813009F0E8C280E08093E900809172
:100290003902813009F0E0C28091E8008870803036
:1002A00009F49BC29091F1001091F1004091F1008E
:1002B000C090F1008091F1006091F1005091F10047
:1002C000A091F100E2EFE093E800E0913402F091B8
:1002D000350231962E173F070CF0C2C2F09335025B
:1002E000E0933402E0913602E13009F0B5C2E0E17A
:1002F000FBB1FE27FBB9E0913402F0913502319752
:10030000F0933502E0933402E92FEE230AF02DC07A
:10031000903809F436C0913A09F02FC013300CF030
:1003200090C0103009F46EC0113009F408C21230C8
:1003300009F04BC2803009F048C280913D02909193
:100340003E020196281739070CF08AC290933E02AC
:1003500080933D0280913902803009F47DC29091F2
:10036000E80091709030C1F304C2903009F441C0AC
:10037000913219F419300CF085C0103009F064C0C6
:1003800041C016300CF438C0163009F424C11830BE
:1003900009F01BC280913902803009F45DC290914E
:1003A000E80091709030C1F380913A0290913B0245
:1003B0000196281739070CF053C290933B028093A3
:1003C0003A0280913C028093F100809139028130A1
:1003D00009F042C28091E8008E7F8093E80080910E
:1003E0003A0290913B02019790933B0280933A022C
:1003F000F4C116300CF060C0103021F0153009F453
:1004000029C0E3C180913902803009F425C290915E
:10041000E80091709030C1F380E08093F1009091FA
:100420003902913009F018C28093F10080913902AD
:10043000813009F011C28091E8008E7F8093E8003E
:10044000CCC1133009F47BC1153021F0163009F40A
:10045000C2C0BBC180913902813009F0FDC18091D9
:10046000E8008E7F8093E80080913902803009F4A3
:10047000F3C19091E80091709030C1F340684093CF
:10048000E300ABC11B3009F48CC11A3009F49AC1E6
:10049000193009F09AC1803009F097C18091390272
:1004A000803009F4D9C19091E80094709030C1F780
:1004B0008BEF8093E800BACF163009F48CC0193066
:1004C00009F083C180913A0290913B028217930711
:1004D00009F0DEC130933B0220933A0240933C0284
:1004E00080913902813009F0B7C18091E8008E7F98
:1004F0008093E80041E050E086E090E05C0184E019
:1005000090E04C0185E090E03C016901C901DA010D
:100510008601AF5FBF4F0F4F1F4FB501861797077B
:1005200008F0AFC1E0913902E13009F095C1409384
:10053000E900E0913902E13009F08EC1FC01EF5889
:10054000FE4F60816093EB00FC013196603009F44E
:1005500022C060913902613009F07EC1B301861773
:10056000970708F08AC1EF58FE4F60816093EC0056
:1005700060913902613009F06FC1FC013296B4011B
:100580008617970708F079C1EF58FE4F6081609396
:10059000ED00039601C0CF01E1E0B4014617570713
:1005A000C206D30608F0E0E0E170E030AD0168017A
:1005B00009F0AFCF80913902813009F04DC18EE151
:1005C0008093EA0080913902813009F045C180E0D2
:1005D0008093EA0002C1CC0CDD1CCC0CDD1CCC0CE1
:1005E000DD1CCC0CDD1CCC0CDD1CCC0CDD1CCC0CC7
:1005F000DD1CCC0CDD1C242F33272C293D29AA0F10
:10060000BB1FAA0FBB1FAA0FBB1FAA0FBB1FAA0F9E
:10061000BB1FAA0FBB1FAA0FBB1FAA0FBB1F452FD3
:1006200055274A2B5B2B660F771F660F771F660FC8
:10063000771F660F771F660F771F660F771F660F8E
:10064000771F660F771F9927862B972BA9E1B1E0BB
:1006500069E471E0FD01008111810217130731F493
:10066000FD01028113810817190729F01896A617B2
:10067000B70781F7AAC08FEF90E04817590708F035
:10068000AC01FD013681341708F0342FCD010696F8
:100690005C01149640E080913902803009F4DCC09E
:1006A0002091E8009091E8002170203019F09470BA
:1006B000903099F78091E8008470803009F08DC007
:1006C0003034232F08F020E4203009F428C06D01D5
:1006D000522F540F122FF50160817181842F9927B9
:1006E0008617970708F0D0C0609139026130F60193
:1006F00009F0B2C0A081B181A80FB91F8C9180937D
:10070000F1001A954395103031F78091390281300C
:1007100009F0A2C0832F821B452FD60102C0832F70
:10072000821B9091E8009E7F9093E8003034382F30
:1007300008F0B1CF8030382F09F0ADCF4EC08030F7
:1007400009F043C080913D0290913E020196281726
:1007500039070CF085C090933E0280933D02809152
:100760003902803009F478C09091E800917090309F
:10077000C1F380913F028093F10080913902813072
:1007800009F06AC08091E8008E7F8093E800809134
:100790003D0290913E02019790933E0280933D026C
:1007A0001CC0803091F4809110019091110182174A
:1007B000930709F06DC0309311012093100140930D
:1007C000120134CE803009F438C080913902813072
:1007D00009F042C081E28093EB0080913702909152
:1007E000380201979093380280933702FF200AF471
:1007F000789421960FB6F894DEBF0FBECDBFFF915F
:10080000EF91DF91CF91BF91AF919F918F917F91A8
:100810006F915F914F913F912F911F910F91FF9099
:10082000DF90CF90BF90AF909F908F907F906F9010
:100830000F900FBE1F900F90189580913D029091E0
:100840003E028217930709F023C030933E022093A3
:100850003D02C0923F02EACD0E946A080E9414093C
:1008600089E591E068E170E0AE014F5F5F4F20E005
:1008700031E00E940F090E94140966E070E0CF0188
:1008800003C066E070E0CB010E946E080E9414096C
:1008900089E491E060E170E0AE014F5F5F4F28E0D6
:1008A00031E0E7CF0F921F920FB60F9200242F93E3
:1008B0003F934F935F936F937F938F939F93AF93E8
:1008C000BF93CF93DF93EF93FF93CDB7DEB7259719
:1008D0000FB6F894DEBF0FBECDBF2FB7F89440E03F
:1008E00050E080914302909144028417950709F0EB
:1008F000E5C08FEF9FEF9093440280934302609195
:100900004602709147026417750709F0D7C09093AB
:100910004702809346026091490270914A0264172F
:10092000750709F0CBC090934A0280934902E09189
:100930004002F0914102DF0111964A175B070CF06B
:10094000C7C0B0934102A0934002309142023130BF
:1009500009F0CBC03091CE0071E3313309F072E081
:1009600060E3303309F0672F6370603009F470C0C2
:10097000613009F469C060914B02603009F472C0C3
:1009800060914C0270914D026417750709F096C092
:1009900090934D0280934C0260914F0270915002EF
:1009A0006417750709F08AC09093500280934F0234
:1009B00080915302909154028B839C8380915102C9
:1009C0009091520289839A8360914E02862F9927D3
:1009D000643008F08EC0DE011196A80FB91F3C9359
:1009E000862F839580934E028B819C819093540235
:1009F00080935302A981BA81B0935202A09351020D
:100A00006330C9F430E030934B0230934E02609172
:100A10001301709114016417750709F04FC0B0936A
:100A20001601A09315015093140140931301909364
:100A30001801809317015093500240934F02509336
:100A40004D0240934C020EC081E080934B020AC0DD
:100A500080914502803031F081E08093480280E04F
:100A60008093450250934A0240934902F093410219
:100A7000E093400250934702409346025093440251
:100A80004093430222230AF4789425960FB6F894F3
:100A9000DEBF0FBECDBFFF91EF91DF91CF91BF9130
:100AA000AF919F918F917F916F915F914F913F9106
:100AB0002F910F900FBE1F900F90189589E491E031
:100AC00060E170E0AE014B5F5F4F28E031E009C0AC
:100AD00089E591E068E170E0AE014B5F5F4F20E097
:100AE00031E00E940F090E9414090E946A080E94C6
:100AF000140964E070E00E946E080E9414090E94CC
:100B000083050E941409CF93DF93CDB7DEB72197F9
:100B10000FB6F894DEBF0FBECDBF8FB7F89490919B
:100B20005B02903011F090E003C091E090935B0283
:100B300088230AF47894903009F497C08FB7F8941A
:100B400027E630E03093CD002093CC0098E09AB9AE
:100B500096E09093CA0028E92093C90020E030E095
:100B600040914002509141024217530709F070C072
:100B7000309341022093400241E04093420240E022
:100B800044BFA89550E8509361004093610040EA4B
:100B90004093D80099BD99B591709030E1F390E8F9
:100BA0009093D80090E09093E0009CE09093E20056
:100BB00090E39AB99BB9409137025091380242179D
:100BC000530709F045C0309338022093370291E073
:100BD00090933902409134025091350242175307E5
:100BE00009F036C0309335022093340290933602D8
:100BF00040E65AEE50938900409388003093850078
:100C00002093840092E090936F0095E09093810090
:100C1000409155025091560242175307C9F4309340
:100C200056022093550291E090935702409158024A
:100C3000509159024217530759F4309359022093A7
:100C4000580290935A0288230AF478947894FFCF3C
:100C500089E491E060E170E0AE014F5F5F4F28E012
:100C600031E00E940F090E9414090E946A080E9444
:100C700014090F921F920FB60F9200242F933F93E7
:100C80004F935F936F937F938F939F93CF93DF9354
:100C9000EF93FF93CDB7DEB721970FB6F894DEBF81
:100CA0000FBECDBF8FB7F894E0915502F091560278
:100CB000319620E030E02E173F070CF09EC0F093F5
:100CC0005602E093550290915702913009F091C07D
:100CD0009FEF97BD90915702913009F08AC090E044
:100CE00096BD90915702913009F083C092E09093A5
:100CF0006E0090915702913009F07BC095E095BD50
:100D0000E0915502F09156023197F0935602E0932C
:100D1000550240914302509144024217530709F093
:100D200030C04FEF5FEF5093440240934302E09195
:100D30004002F091410231962E173F070CF05DC042
:100D400091E090934502F0934102E093400290912C
:100D50004202913009F04DC090E39093CE00E091B3
:100D60004002F09141023197F0934102E09340023A
:100D7000E0914302F09144023196F0934402E093F3
:100D80004302E0915802F091590231962E173F0725
:100D90000CF033C0F0935902E093580290915A023C
:100DA000913009F026C090E090938100E0915802C4
:100DB000F09159023197F0935902E0935802882339
:100DC0000AF4789421960FB6F894DEBF0FBECDBF1B
:100DD000FF91EF91DF91CF919F918F917F916F91D3
:100DE0005F914F913F912F910F900FBE1F900F90E9
:100DF00018950E946A080E94140989E591E068E14B
:100E000070E0AE014F5F5F4F20E031E00E940F09BC
:100E10000E9414090F921F920FB60F9200242F9375
:100E20003F934F935F936F937F938F939F93AF9372
:100E3000BF93CF93DF93EF93FF93CDB7DEB72597A3
:100E40000FB6F894DEBF0FBECDBF4FB7F8948091B8
:100E5000550290915602019620E030E0281739079C
:100E60000CF027C19093560280935502809157024F
:100E7000813009F02BC180E085BDE0914002F09106
:100E8000410231962E173F070CF013C1F093410237
:100E9000E093400280914202813009F017C18091B5
:100EA000C800A0914602B091470211962A173B074D
:100EB0000CF0FFC0B0934702A093460280728030CE
:100EC00079F080914802803059F081E38093CE0020
:100ED000E0914002F0914102A0914602B091470298
:100EE0003197F0934102E09340021197B09347028B
:100EF000A0934602E0913702F0913802BF0131968B
:100F00002E173F070CF0D5C0F0933802E09337025C
:100F100080913A0290913B02DC0111962A173B071F
:100F20000CF0C7C0B0933B02A0933A0250913C0230
:100F3000503009F44AC080913902813009F07CC0F8
:100F400080913402909135020196281739070CF0F0
:100F5000B0C0909335028093340280913602813084
:100F600009F0B4C080E29BB198279BB9809134020C
:100F7000909135020197909335028093340281E07D
:100F80008093E9008091E4009091E500C296509131
:100F90003C026091E80060726030E9F4503039F052
:100FA0006091E4007091E5006817790790F38091F3
:100FB0003A0290913B02019790933B0280933A0250
:100FC000E0913702F09138023CC090933B0280934D
:100FD0003A02FB0137C08091130190911401FC018A
:100FE00031962E173F070CF064C020911701309105
:100FF00018012B833C832091150130911601298320
:101000003A839093140180931301DE011196CD0170
:1010100004962093F1001196A817B90711F02C91AE
:10102000F8CF8AE38093E800E0913702F09138022C
:10103000A0913A02B0913B021197B0933B02A0936A
:101040003A023197F0933802E093370280915702C9
:10105000813009F03BC080E086BD8091570281302D
:1010600009F034C085E085BD80915502909156020B
:101070000197909356028093550244230AF4789482
:1010800025960FB6F894DEBF0FBECDBFFF91EF914E
:10109000DF91CF91BF91AF919F918F917F916F9190
:1010A0005F914F913F912F910F900FBE1F900F9026
:1010B000189589E591E068E170E0AE014B5F5F4F04
:1010C00020E031E00E940F090E9414090E946A0882
:1010D0000E9414090E9472080E9414090E9472085A
:1010E0000E9414090E9413090E9414090F931F9370
:1010F000CF93DF93CDB7DEB724970FB6F894DEBF5A
:101100000FBECDBF8B01F801878590892189328977
:10111000F9012681378168E172E04BE050E0F90186
:10112000099509831A83803011F480E001C081E0C1
:1011300090E08B839C83CE0101960E94AB08992797
:1011400024960FB6F894DEBF0FBECDBFDF91CF91CE
:101150001F910F9108950F931F93DC01FD01828170
:101160009381903009F422C0FD013296803011F055
:1011700081E01BC08F01FD01A081B181FD01878548
:10118000908921893289F901268137814C914470F7
:10119000403021F463E272E042E003C065E272E0B5
:1011A00041E050E0F9010995F801808399271F91EA
:1011B0000F9108950F931F93CF93DF93CDB7DEB7B1
:1011C00024970FB6F894DEBF0FBECDBF8B01F80198
:1011D0008785908921893289F9012681378166E2E4
:1011E00072E04EE050E0F901099509831A838030DE
:1011F00011F480E001C081E090E08B839C83CE01FC
:1012000001960E94AB08992724960FB6F894DEBF8A
:101210000FBECDBFDF91CF911F910F9108950E9416
:1012200072080E941409FFCF81E090E0F8940C94BA
:061230001909F894FFCF3C
:10123600B40000000100EC10B20000000100B4117F
:1012460000000100007F7F0000000100007701120E
:1012560000000200008901220000220000AB0137D5
:101266000000030000E201040001030904E601088E
:101276000002030904EE012A00616C72656164795B
:1012860020626F72726F776564616C7265616479F2
:10129600206D757461626C7920626F72726F77650A
:1012A6006401C1320000001201100100000040C4B8
:1012B60010C08200010102000109022200010100A2
:1012C6008032090400000103000000092111010019
:1012D600012237000705810340000A05010904A120
:1012E60001A102150026FF00350046FF0005017525
:1012F600089502093009318102C0A10205092501BC
:1013060015001901290B950B7501810295058101BF
:10131600C0C00403090408034F00460053002A0313
:101326004F00700065006E002000460069006700EF
:1013360068007400200053007400690063006B00AD
:101346002000760032006100426F72726F7745723C
:10135600726F72207D7D426F72726F774D75744524
:0413660072726F72BE
:00000001FF
